:100000001711000013010100930290301303903088
:1000100063D8620023A0020093824200E3CC62FE18
:10002000EF00000C6F0000008346050063860602A7
:1000300037070080130747003706008013051500B7
:100040008327070093F71700E39C07FE2320D600C1
:1000500083460500E39406FE6780000037070080B2
:1000600013074700B70600808327070093F71700A0
:10007000E39C07FE930700033707008023A0F600E8
:1000800013074700B70600808327070093F7170080
:10009000E39C07FE930780073707008023A0F60044
:1000A0009305802F130747009306C001B70800800F
:1000B0001308C0FFB357D50093F7F700B387F500D7
:1000C00003C607008327070093F71700E39C07FE8A
:1000D00023A0C8009386C6FFE39E06FD678000004C
:1000E000130101FE13058026232E1100232C81000D
:1000F000232A9100EFF05FF3B7D61200B707008014
:100100009386766837A70D0003A407201307378866
:100110002322D1002324E10003274100832681000C
:10012000130500293307D7022326E10083A4072003
:10013000EFF09FEF03254100EFF05FF21305002A77
:10014000EFF09FEE03258100EFF05FF11305402AE9
:10015000EFF09FED0325C100EFF05FF01305802A5B
:10016000EFF09FEC33858440EFF05FEF1305C02B79
:10017000EFF09FEB1305002CEFF01FEB370E008024
:100180003703008037070080130570261308802F7F
:10019000130E4E1013030310130747009307F00FBD
:1001A0003706008093020003930F80079308C0FF77
:1001B000130FD000930EA00083250E0093F5F500D9
:1001C0002320B300E38AF5FE1304B0049306C02590
:1001D000938616008327070093F71700E39C07FE1A
:1001E0002320860003C40600E394A6FE83270700AD
:1001F00093F71700E39C07FE232056008327070090
:1002000093F71700E39C07FE2320F6019306C00135
:10021000B3D7D500B307F80003C40700832707004E
:1002200093F71700E39C07FE232086009386C6FF02
:10023000E39016FF8327070093F71700E39C07FE60
:100240002320E6018327070093F71700E39C07FEAE
:100250002320D601938705006FF01FF64B657920A8
:1002600053746174653A20000D0A2D2D2D205249DA
:1002700053432D562052563332494D2053797374CF
:10028000656D20426F6F74202D2D2D0D0A0000002A
:100290004D2D45787420546573743A200000000099
:1002A000202A2000203D20000D0A4379636C6573ED
:1002B00020656C61707365643A2000000D0A0000CF
:1002C000456E746572696E67204750494F206C6FA8
:1002D0006F702E205075736820627574746F6E7322
:1002E00020746F206D6972726F72206F6E204C45A2
:1002F00044732E2E2E0D0A0030313233343536370A
:09030000383941424344454600EE
:00000001FF
